{
  "_format": "hh-sol-artifact-1",
  "contractName": "Transactions",
  "sourceName": "contracts/Transactions.sol",
  "abi": [
    {
      "anonymous": false,
      "inputs": [
        {
          "indexed": false,
          "internalType": "address",
          "name": "from",
          "type": "address"
        },
        {
          "indexed": false,
          "internalType": "address",
          "name": "receiver",
          "type": "address"
        },
        {
          "indexed": false,
          "internalType": "uint256",
          "name": "amount",
          "type": "uint256"
        },
        {
          "indexed": false,
          "internalType": "string",
          "name": "message",
          "type": "string"
        },
        {
          "indexed": false,
          "internalType": "uint256",
          "name": "timestamp",
          "type": "uint256"
        },
        {
          "indexed": false,
          "internalType": "string",
          "name": "keyword",
          "type": "string"
        }
      ],
      "name": "Transfer",
      "type": "event"
    },
    {
      "inputs": [
        {
          "internalType": "address payable",
          "name": "receiver",
          "type": "address"
        },
        {
          "internalType": "uint256",
          "name": "amount",
          "type": "uint256"
        },
        {
          "internalType": "string",
          "name": "message",
          "type": "string"
        },
        {
          "internalType": "string",
          "name": "keyword",
          "type": "string"
        }
      ],
      "name": "addToBlockchain",
      "outputs": [],
      "stateMutability": "nonpayable",
      "type": "function"
    },
    {
      "inputs": [],
      "name": "getAllTransactions",
      "outputs": [
        {
          "components": [
            {
              "internalType": "address",
              "name": "sender",
              "type": "address"
            },
            {
              "internalType": "address",
              "name": "receiver",
              "type": "address"
            },
            {
              "internalType": "uint256",
              "name": "amount",
              "type": "uint256"
            },
            {
              "internalType": "string",
              "name": "message",
              "type": "string"
            },
            {
              "internalType": "uint256",
              "name": "timestamp",
              "type": "uint256"
            },
            {
              "internalType": "string",
              "name": "keyword",
              "type": "string"
            }
          ],
          "internalType": "struct Transactions.TransferStruct[]",
          "name": "",
          "type": "tuple[]"
        }
      ],
      "stateMutability": "view",
      "type": "function"
    },
    {
      "inputs": [],
      "name": "getTransactionCount",
      "outputs": [
        {
          "internalType": "uint256",
          "name": "",
          "type": "uint256"
        }
      ],
      "stateMutability": "view",
      "type": "function"
    }
  ],
  "bytecode": "0x608060405234801561001057600080fd5b50610825806100206000396000f3fe608060405234801561001057600080fd5b50600436106100415760003560e01c806327506f53146100465780632e7700f014610064578063cc2d7ead14610075575b600080fd5b61004e61008a565b60405161005b9190610436565b60405180910390f35b60005460405190815260200161005b565b61008861008336600461059a565b610245565b005b60606001805480602002602001604051908101604052809291908181526020016000905b8282101561023c5760008481526020908190206040805160c0810182526006860290920180546001600160a01b0390811684526001820154169383019390935260028301549082015260038201805491929160608401919061010f90610626565b80601f016020809104026020016040519081016040528092919081815260200182805461013b90610626565b80156101885780601f1061015d57610100808354040283529160200191610188565b820191906000526020600020905b81548152906001019060200180831161016b57829003601f168201915b50505050508152602001600482015481526020016005820180546101ab90610626565b80601f01602080910402602001604051908101604052809291908181526020018280546101d790610626565b80156102245780601f106101f957610100808354040283529160200191610224565b820191906000526020600020905b81548152906001019060200180831161020757829003601f168201915b505050505081525050815260200190600101906100ae565b50505050905090565b60016000808282546102579190610660565b90915550506040805160c0810182523381526001600160a01b03868116602083019081529282018681526060830186815242608085015260a08401869052600180548082018255600091909152845160069091027fb10e2d527612073b26eecdfd717e6a320cf44b4afac2b0732d9fcbe2b7fa0cf6810180549286167fffffffffffffffffffffffff000000000000000000000000000000000000000093841617815596517fb10e2d527612073b26eecdfd717e6a320cf44b4afac2b0732d9fcbe2b7fa0cf7820180549190961692169190911790935590517fb10e2d527612073b26eecdfd717e6a320cf44b4afac2b0732d9fcbe2b7fa0cf8830155519192917fb10e2d527612073b26eecdfd717e6a320cf44b4afac2b0732d9fcbe2b7fa0cf99091019061038790826106d8565b506080820151600482015560a082015160058201906103a690826106d8565b5050507f416cfa4330a4565f45c2fd2dd4826a83a37443aba2ce6f79477c7355afac35fa3385858542866040516103e296959493929190610798565b60405180910390a150505050565b6000815180845260005b81811015610416576020818501810151868301820152016103fa565b506000602082860101526020601f19601f83011685010191505092915050565b600060208083018184528085518083526040925060408601915060408160051b87010184880160005b838110156104e957603f19898403018552815160c06001600160a01b03808351168652808a840151168a87015250878201518886015260608083015182828801526104ac838801826103f0565b92505050608080830151818701525060a080830151925085820381870152506104d581836103f0565b96890196945050509086019060010161045f565b509098975050505050505050565b634e487b7160e01b600052604160045260246000fd5b600082601f83011261051e57600080fd5b813567ffffffffffffffff80821115610539576105396104f7565b604051601f8301601f19908116603f01168101908282118183101715610561576105616104f7565b8160405283815286602085880101111561057a57600080fd5b836020870160208301376000602085830101528094505050505092915050565b600080600080608085870312156105b057600080fd5b84356001600160a01b03811681146105c757600080fd5b935060208501359250604085013567ffffffffffffffff808211156105eb57600080fd5b6105f78883890161050d565b9350606087013591508082111561060d57600080fd5b5061061a8782880161050d565b91505092959194509250565b600181811c9082168061063a57607f821691505b60208210810361065a57634e487b7160e01b600052602260045260246000fd5b50919050565b8082018082111561068157634e487b7160e01b600052601160045260246000fd5b92915050565b601f8211156106d3576000816000526020600020601f850160051c810160208610156106b05750805b601f850160051c820191505b818110156106cf578281556001016106bc565b5050505b505050565b815167ffffffffffffffff8111156106f2576106f26104f7565b610706816107008454610626565b84610687565b602080601f83116001811461073b57600084156107235750858301515b600019600386901b1c1916600185901b1785556106cf565b600085815260208120601f198616915b8281101561076a5788860151825594840194600190910190840161074b565b50858210156107885787850151600019600388901b60f8161c191681555b5050505050600190811b01905550565b60006001600160a01b03808916835280881660208401525085604083015260c060608301526107ca60c08301866103f0565b84608084015282810360a08401526107e281856103f0565b999850505050505050505056fea264697066735822122088beaec573719599d75d254bda4e2fe70b1d7d4e23ff3f8844972082313a423864736f6c63430008170033",
  "linkReferences": {},
  "deployedLinkReferences": {}
}